:020000040800F2
:10000000000001201103000819030008F101000895
:10001000F5010008F9010008FD01000800000000DA
:100020000000000000000000000000004D02000879
:100030002503000800000000E5020008F5020008A2
:100040002B0300082B0300082B0300082B030008D8
:100050002B0300082B0300082B0300082B030008C8
:100060002B0300082B0300082B0300082B030008B8
:100070002B0300082B0300082B0300082B030008A8
:100080002B0300082B0300082B0300087917000836
:10009000691700082B030008711700082B030008DC
:1000A0002B0300082B0300082B0300082B03000878
:1000B0002B03000800000000000000002B030008D4
:1000C0002B03000800000000000000002B030008C4
:1000D000000000002B0300082B03000800000000B4
:1000E0002B0300082B0300080000000000000000A4
:1000F0000000000000000000000000000000000000
:100100000000000000000000000000002B030008B9
:1001100000000000000000002B0300082B03000873
:100120002B0300082B0300082B0300082B030008F7
:100130002B03000800000000000000000000000089
:100140002B0300082B0300082B0300082B030008D7
:100150002B0300082B0300082B0300082B030008C7
:100160002B0300082B0300082B03000800000000ED
:100170002B0300082B030008000000000000000013
:100180002B0300082B0300082B030008DFF85CD0CA
:1001900001F072F800F0CEF801F09AFA42F6385009
:1001A0004FF60041C2F20000C2F20001016042F6C7
:1001B000345040F20041C2F20000C0F20001016080
:1001C00042F62C5043F2E071C2F20000C2F200018C
:1001D000016042F628504CF22041C2F20000C0F209
:1001E0000001016012F0DAFE13F0ACFA0000012009
:1001F000102304E0202302E0302300E040239C464B
:10020000F0B404AE7546E80801D3EFF309860E4F4B
:100210000FCE0FC70FBC0FC74046494652465B463C
:100220000FC71DCE3100A60A00D304316E0900D2DB
:1002300048311FC7EFF309806946EFF3148663C79F
:100240006046014912F00CFED42C00201EF0040F71
:100250000CBFEFF30880EFF30980816911F8021CED
:1002600091BB01B590E80F10E047BDE800508CE865
:100270000300244B93E80600914208BF704741B940
:100280001EF0100F10D12049086820F0010008600E
:100290000AE02CE9F00F1EF0100F08BF2CED108AB9
:1002A000C1F838C081F822E01A6092F82210906BF1
:1002B00061F0FF0E1EF0100F08BFB0EC108AB0E81E
:1002C000F00F80F309887047104A13689942FAD8F2
:1002D00001B552F821C00FC8E047BDE80050CCF886
:1002E0000000704701B513F08FFFBDE80140EFF348
:1002F000098CBEE701B514F033FABDE80140EFF315
:10030000098CB6E76802002034EF00E04886010857
:100310000648804706480047FEE7FEE7FEE7FEE79F
:10032000FEE7FEE7FEE7FEE7FEE7FEE745410008E1
:100330008D010008042104A010F0D2FB03490860DD
:1003400003490860FFF728FF3A7474001003002087
:10035000FC02002010B5044603E000F011F8401C38
:1003600009D014F8010B05490028F6D1BDE810406A
:100370000A2000F005B84FF0FF3010BDFC0200204D
:1003800038B505468DF800000C46086800230122A8
:10039000694610F0C9FB10B14FF0FF3038BDE0687E
:1003A000401CE060284638BD70B50C460546012A61
:1003B00002D0022A03D006E0E868441803E0286867
:1003C00010F07AFB0444002C02DA4FF0FF3070BDCD
:1003D0002146286810F0A2FB0028F8DB0020A87155
:1003E000EC6070BD0021C1608171006810F096BBA7
:1003F00010B509680022C1608271006810F08EFBA0
:10040000002800DB002010BD2DE9F05F054600202C
:1004100092469B4688460646814640241BE0284675
:1004200041464746224600F087FB53465A46C01ACB
:10043000914110D311461846224600F06EFB2D1A4A
:1004400067EB01084F4622460120002100F065FBC2
:1004500017EB00094E41201EA4F10104DFDC4846E1
:1004600031462A464346BDE8F09F2DE9F04100247D
:10047000061B254671F1000605DA01240027D0EBA2
:10048000070067EB0101161E73F1000605DA00276D
:10049000D2EB0702012567EB0303FFF7B5FF8646A2
:1004A0000E4617469C46AC4204D00025D0EB050E04
:1004B00065EB010624B10020D2EB000760EB030CD2
:1004C000704631463A466346BDE8F08100487047C1
:1004D000E4730108014610B509683C22B1FBF2F350
:1004E00002FB1313B1FBF2F11D480360B1FBF2F301
:1004F00002FB1313B1FBF2F118224360B1FBF2F3DC
:1005000002FB1313B1FBF2F183600A1D0723B2FB58
:10051000F3F403FB142282618A0040F2B55102F623
:100520006C32B2FBF1F344334361B2FBF1F301FBF4
:1005300013218908C1613B2903D3027D920700D0B2
:10054000491C0022074C13460261E25C8A4203D830
:10055000891A5B1C0361F8E7491CC16010BD0000EB
:1005600024030020E873010810B5FFF7B3FFBDE8CE
:10057000104000F0F1BA10B5431A934209D2831823
:10058000881803E010F8011D03F8011D521EF9D26E
:1005900010BD40EA01039B0703D009E008C9121F00
:1005A00008C0042AFAD203E011F8013B00F8013B2D
:1005B000521EF9D210BDD2B201E000F8012B491E43
:1005C000FBD270470022F6E710B513460A460446F0
:1005D0001946FFF7F0FF204610BD10B5044604E0B1
:1005E0000B7800F8013B03B1491C521EF8D220469B
:1005F00010BD421C10F8011B0029FBD1801A704766
:1006000010B5002200E0521C835C8C5CA34201D137
:10061000002BF8D1D8B2E1B2401A10BD30B5044673
:100620000020034600E05B1C934203D2E05CCD5CFB
:10063000401BF8D030BD034611F8012B00F8012B08
:10064000002AF9D11846704730B505460020034608
:1006500000E05B1C934205D2EC5CC85C201A01D11F
:10066000002CF6D130BD30B503461D783DB10A46A9
:1006700012F8014B1CB1AC42FAD15B1CF5E7181A19
:1006800030BD30B50546002008E00A4602E0A3422E
:1006900007D0521C1378002BF9D1401C2C5C002C85
:1006A000F3D130BD00B58DB0099000920B904FF0A2
:1006B000FF300A9000200C900448069004480790F0
:1006C0006A4609A800F016FD0DB000BD1111000822
:1006D0002F1100080FB400B58DB010A909900B9030
:1006E00000914FF0FF300A9000200C9005480690D2
:1006F000054807906A4609A80F9900F0FBFC0DB069
:100700005DF814FB111100082F1100082DE9FF5F9F
:100710001D464FF0FF3BD5E9014691465F464FF03D
:100720000008A9697F1C01988847296A8246884782
:100730000028F6D1BAF1FF3F0CD024F4C064002E9B
:1007400019DD600614D5BAF12B0F09D0BAF12D0FBF
:100750000ED103E0584604B0BDE8F09F44F4806435
:10076000A9697F1C01988847761E8246002E02DD0B
:10077000BAF1300F03D0B9F1000F26D032E0A969E9
:10078000761E44F400747F1C019888478246002E30
:1007900005DDBAF1780F06D0BAF1580F03D0B9F1E0
:1007A000000F10D01EE0B9F1000F02D0B9F1100F08
:1007B00018D1A969761E24F400747F1C019888471B
:1007C0008246102002E0082000E00A20814609E06D
:1007D00008FB0908A969761E44F400747F1C01987F
:1007E00088478246002E05DD4946504600F012FA41
:1007F0000028EDDAE96901988847A00502D46FF076
:100800000100A8E7E00725D1600613D5600502D5F1
:10081000C8F1000000E0404629680A1D2A60096806
:10082000220501D5087015E0220701D5088011E0E6
:1008300008600FE02868011D29600068210502D5C5
:1008400080F8008006E0210702D5A0F8008001E0D2
:10085000C0F8008038467EE72DE9FF5FD2E901A7A6
:100860004FF00008916999461446DDF838B04646C5
:1008700001988847054659EA0B0005D009E0A169AF
:10088000761C019888470546216A28468847002833
:10089000F5D1681C03D05FEACA7005D015E04FF0AF
:1008A000FF3004B0BDE8F09F2068011D2160D0F842
:1008B00000800AE05FEACA7001D108F8015BA16913
:1008C000761C7F1E019888470546002F1ADD681C9C
:1008D00018D0B9F1000F0DD0E81705EBD060421128
:1008E00020F01F0059F822102A1A012090400142DE
:1008F000E0D107E0BBF1000FDCD1216A2846884730
:100900000028D7D0E16901988847BBF1000F07D1D3
:10091000002E05DD5FEACA7002D1002188F80010C0
:10092000A068B84203DDBBF1000F03D017B16FF030
:100930000100B6E73046B4E770B5054C054D04E05C
:100940002046016808448047241DAC42F8D170BDA0
:10095000AC920108B09201082DE9FE4F81EA030430
:1009600004F0004421F0004100944FF0000B23F00C
:10097000004350EA01045ED052EA03045BD0C3F3A3
:100980000A54C1F30A552C44A4F2F3340194A0FB99
:100990000254C1F3130141F48011C3F3130343F470
:1009A000801301FB024400FB034E840A970A44EAC9
:1009B000815447EA8357A4FB076802958D0A05FB1B
:1009C00007854FEA932C04FB0C542705029D4FEA40
:1009D000065847EA1637B5EB08056EEB070C870E8D
:1009E000920E47EA811742EA8312A7FB0201B6EB97
:1009F0000B0164EB00042B0D43EA0C335E1844EB4F
:100A00001C50DA465146E7FB0201C5F313044FEAD6
:100A10000B3343EA14534FEA0432019C43EA0603C2
:100A2000A4F10C040294009CCDE900B400F0D6FBC4
:100A300003B0BDE8F08F00200146F9E72DE9F04D45
:100A400081EA030404F0004B21F0004514464FF006
:100A5000000A23F0004150EA050220D054EA0102C6
:100A60001DD0C5F30A570246C5F31303C1F31300A3
:100A7000C1F30A5640F4801543F48013A7EB06082F
:100A8000101BD64608F2FD3873EB050002D308F1BF
:100A9000010801E092185B41B8F1000F03DA002071
:100AA0000146BDE8F08D00204FF4801106468446D3
:100AB0000EE0171B73EB050705D3121B63EB050351
:100AC00006434CEA010C49084FEA300092185B419A
:100AD00050EA0107EDD152EA030012D082EA040085
:100AE00083EA0501084305D0101BAB4106D2012261
:100AF000002306E000224FF0004302E06FF0010205
:100B000053101AEB06004CEB085110EB0A0041EBB6
:100B10000B01BDE8F04D00F052BB202A04DB203A67
:100B200000FA02F1002070479140C2F1200320FA40
:100B300003F3194390407047202A04DB203A21FA3E
:100B400002F00021704721FA02F3D040C2F12002E6
:100B50009140084319467047F0B52A4B2A4C85B09E
:100B60000021826902EB42020A44491CA25C03F89C
:100B7000012B0329F5DB244C4FF0200C002103F856
:100B800001CB1534026902EB42020A44491CA25C03
:100B900003F8012B0329F5DBC168009181680191FD
:100BA0004168029101680391406918A200F26C70DB
:100BB0006C460A27049017E003F8010B12F8010FA6
:100BC00008B1022500E0042502CC284607E091FB8D
:100BD000F7F607FB161691FBF7F130361E54061E8A
:100BE000A0F10100F3DC2B4410780028E4D11F7041
:100BF00058700448017A302901D180F808C005B046
:100C00000048F0BD50030020F473010820203A3A58
:100C1000200000003A2800D2303820F02002412A7B
:100C200001D3A2F13700884201D34FF0FF30704763
:100C30002DE9FF4F1C4681B00021D4E901679146A0
:100C40004FF0FF358A468846A1696D1C0298884797
:100C5000216A834688470028F6D1BBF1FF3F0CD0BC
:100C600026F4C066002F1ADD700615D5BBF12B0FD8
:100C70000AD0BBF12D0F0FD104E04FF0FF3005B0CB
:100C8000BDE8F08F46F48066A1696D1C0298884724
:100C90007F1E8346002F02DDBBF1300F03D0B9F178
:100CA000000F2AD025E0A1696D1C46F400767F1E56
:100CB000029888478346002F05DDBBF1780F06D0E8
:100CC000BBF1580F03D0B9F1000F10D011E0B9F10A
:100CD000000F02D0B9F1100F0BD1A1696D1C26F4E1
:100CE00000767F1E029888478346102000E0082087
:100CF00081464FEAE970009017E00A20F8E7434682
:100D0000AAFB092803FB0980DDF800C07F1E0AFB4F
:100D10000C0112EB0B0A41EBEB78A16946F400766B
:100D200005F10105029888478346002F06DD4946F4
:100D30005846FFF76FFF5FEA000BE0D5E1690298C4
:100D40008847B00502D46FF0010098E7F00718D18A
:100D5000700610D57005514605D50023D1EB03016F
:100D600063EB080200E042462068031D2360006830
:100D7000C0E9001205E02068011D21600068C0E99B
:100D800000A828467BE700002DE9FF4F087883B0D4
:100D90009946FF2805D0491C2D2804D000240020A6
:100DA00008E000200BE00124F9E700EB800003EBF2
:100DB0004000491C0B78FF2BF7D104B140420023BF
:100DC0000293147819461D462D2C01D02B2C04D1EA
:100DD000521C2D2C13D000240294AA461478FF2C08
:100DE0000FD00A25A3FB057801FB05814FF0000C0D
:100DF00003FB0C11521CE3194AEB0101EEE701243D
:100E0000EAE7814453EA010002D019F5C87F06DA07
:100E100003980021C0E9001107B0BDE8F08F00255C
:100E2000AE4E2F46DFF8B882184600F0CDFBCDE974
:100E30000001B9F1000002DAC9F1000400E0044643
:100E40000023A74A1AEB030B42EB045A12E0E00717
:100E500007D02A46334638464146FFF77DFD074610
:100E600088462A46334610461946FFF775FD054663
:100E70000E466410002CEAD1DDE90001B9F1000F43
:100E80005A46534606DAFFF7D9FD3A464346FFF77E
:100E9000D5FD05E0FFF760FD3A464346FFF75CFDF0
:100EA000029A0AB181F00041039AC2E90001B3E756
:100EB0002DE9FF4F1F468DB0D7E901464FF0FF38AF
:100EC0002E2045464FF000090B90B9696D1C0E9815
:100ED0008847396A824688470028F6D1BAF1FF3F31
:100EE0000AD024F4D064002E11DDBAF12B0F08D003
:100EF000BAF12D0F0BD102E0404611B08DE744F45A
:100F00008064B9696D1C0E9888478246761E6946D2
:100F1000600501D52D2000E02B208DF8000001F1A7
:100F2000010B0DF1200809E0B9696D1C0E98884786
:100F300082460F9844F40074761E0560002E02DD90
:100F4000BAF1300FF0D00B998A453ED144F08004BD
:100F500006E00F99681CA9F1010944F400740860C7
:100F6000B9696D1C761E0E98884782463028F0D0ED
:100F70002BE00B998A4505D1200603D444F0800468
:100F8000761E18E0504616F0E4F908B30DF113028E
:100F9000761EAAF1300044F40074934506D20BF893
:100FA000010B200607D5A9F1010003E0200602D4B9
:100FB00009F101008146A00502D50F99681C08605F
:100FC000B9696D1C0E9888478246002ED1DC53E02B
:100FD000002E51DDBAF1650F02D0BAF1450F4BD1A9
:100FE000A00549D5B9696D1C24F44074761E0E988D
:100FF00088478246002E0CDD2B2804D0BAF12D0F35
:1010000007D144F48074B9696D1C0E9888478246F4
:10101000761EE00501D52D2100E02B2108F8011BEB
:10102000CDF82C8021E00DF12901761E44F40074E6
:1010300088450CD2AAF1300010F0FF0088F80000BB
:1010400002D10B99884509D908F1010806E0E005AD
:1010500001D5244801E042F20F708146B9696D1C48
:101060000E98884782460F980560002E04DD504692
:1010700016F06FF90028D6D1F9690E988847FF203D
:101080008BF8000088F800000020069007904B467F
:101090006A4608A906A8FFF777FEA00502D46FF0FC
:1010A00001002AE714F0240F0AD0E00714D1DDE98B
:1010B00006123868031D3B600068C0E900120BE0AF
:1010C000DDE9060100F08CFA0146E00704D138683A
:1010D000021D3A600068016028460EE700001440D7
:1010E0000000F03FF1D8FFFF02681144137801605F
:1010F00018467047D16004495161044911620021CA
:101100001161114600F0CAB8E91000083125010844
:10111000426842B1016811F8013B23B1521EC0E997
:101120000012184670470121C160881E704742684E
:101130005AB1C368016843B983688B4205D0491E20
:10114000521CC0E90012002070474FF0FF3070477A
:101150000029A8BF7047401C490008BF20F00100CB
:10116000704710B4B0FA80FC00FA0CF050EA0104A9
:1011700004BF10BC704749B1CCF1200421FA04F43B
:1011800011FA0CF118BF012121430843A3EB0C0114
:10119000CB1D4FEA00614FEA102042BF002010BC77
:1011A000704700EBC35010440029A4BF10BC704727
:1011B000401C490008BF20F0010010BC704710B56A
:1011C000141E73F1000408DA401C41F1000192186A
:1011D0005B411A4301D120F0010010BD2DE9F04D13
:1011E00092469B4611B1B1FA81F202E0B0FA80F268
:1011F00020329046FFF791FC04460F4640EA0A0071
:1012000041EA0B0153465A46084313D0114653EAAC
:10121000010019D0C8F140025046FFF78DFC054689
:101220000E46504659464246FFF777FC084305D024
:10123000012004E020463946BDE8F08D002005433A
:1012400046EAE0762C4337430A986305E40AA0EBAC
:1012500008000022FD0A44EA47540A3002D5002063
:101260000146E9E7010510196941DDE90845001962
:101270006941BDE8F04DA2E7064C074D06E0E06885
:1012800040F0010394E8070098471034AC42F6D3CD
:10129000FEF780FF8C920108AC9201082DE9F34F14
:1012A0008BB04FF0000801F10C000C464FF0010B21
:1012B00046460DF1080A01906269012101989047A4
:1012C000051E2DD0252D2CD0216A8847C0B162691A
:1012D000012101989047216A88470028F7D1411ED3
:1012E00062690198904700E0761CA1690B988847D5
:1012F000216A88470028F7D1E1690B988847DBE726
:10130000A1690B9888470746A84201D1761CD3E70C
:10131000E1690B9888477F1C02D1B8F1000F6FD0AC
:1013200046E1002762693D463946019890472A28E0
:1013300004D162690121019890470125DFF8849268
:101340006269012101989047A0F130010A290AD26F
:101350004F45E5DC07EB870100EB4107303FDFD469
:1013600045F01005ECE7E90601D46FF000476C2862
:101370000AD04C2814D0682815D06A280DD07428BB
:101380001CD07A281AD01DE062690121019890478B
:101390006C2802D045F0040514E045F002050DE08C
:1013A00045F020050AE0626901210198904768280C
:1013B00002D045F0080505E045F4006562690121A9
:1013C00001989047C4E9015765283DD019DC582899
:1013D0007AD00CDC452837D004DC252826D04128DB
:1013E00031D131E046282FD047282CD12CE05B2882
:1013F00077D0612828D063287CD0642823D15AE094
:10140000D0E06F2848D008DC66281DD067281BD0A4
:10141000692821D06E2816D127E0702845D073287E
:1014200068D0752847D078280DD14DE0A1690B9878
:101430008847054625283FF469AFE1690B9888473E
:101440006D1C3FF46AAFB3E023466A466FF00100BB
:101450000B99FFF72DFD9EE045F040006060A80766
:1014600023464FF0000236D43EE0E8077FF447AF52
:101470002068011D21600068290501D506701BE761
:10148000290701D5068017E7A90703D5F117C0E999
:10149000006111E706600FE745F040006060A807B3
:1014A00023464FF0080216D41EE040F60E0125EA4E
:1014B0000100606016E045F040006060A807234628
:1014C0004FF00A0207D40FE045F040006060A80723
:1014D00008D5234610226FF001000B99FFF7A8FBF7
:1014E00059E007E0234610226FF001000B99FFF747
:1014F0000DF950E04FF000094F464B46632802D0EB
:101500005B2806D040E0E80601D40120A060012756
:101510003AE062690121019890475E2805D14FF0B9
:1015200001096269494601989047216939B900214A
:101530000A46534643F82120491C0829FADBB0B378
:10154000216969B9C11700EBD16253110AEB83011C
:1015500022F01F02821A01200B68904003430B60A7
:1015600062690121019890475D28E8D1B9F1000F27
:1015700009D00020514651F82020D24341F82020C4
:10158000401C0828F7DB02AB224600976FF00100F1
:101590000B99FFF761F900280CDA401C08D1BBF168
:1015A000000F05D04FF0FF300DB0BDE8F08FFFE722
:1015B0004046F9E7E90701D108F1010806444FF078
:1015C000000B79E6CCCCCC0C0EB540F23342029243
:1015D0000022CDE900221346FFF700FE03B000BD54
:1015E00001F0004330B421F0004150EA010206D07E
:1015F0000A0DA2F56072C1F31301002A02DC30BCAF
:1016000000207047440F44EAC104C100E01830BC18
:1016100000EBC250FFF79CBD30B58C1810F8012BC1
:1016200012F00F0301D110F8013B120906D110F896
:10163000012B03E010F8015B01F8015B5B1EF9D19F
:1016400001E001F8013B521EFBD1A142E6D300208C
:1016500030BD000083B080B583B0844605A840F259
:10166000FC2E0EC005ABC2F2000E00206FF0004150
:1016700062460293CDF800E011F0A6FC03B0BDE88D
:10168000804003B07047000082B080B582B08C46C5
:10169000CDE9042304AB4FF0000E6FF00041624629
:1016A0000193CDF800E011F08FFC02B0BDE880405E
:1016B00002B0704780B582B013460A4684460020C7
:1016C0006FF00041CDF800C011F07EFC02B080BD8B
:1016D00070470000002070470020704700207047CE
:1016E000002070470020704700207047002070479E
:1016F00000207047002070470020704780B582B0FE
:1017000013460A46844600206FF00041CDF800C021
:1017100011F05AFC02B080BD80B582B04FF0000CD1
:10172000CDF800C011F050FC02B080BD80B582B091
:1017300013460A464FF0000C6FF00041CDF800C090
:1017400011F042FC02B080BD4EF69851CEF200017D
:1017500008600020886070474EF69C52CEF200026E
:10176000106051607047000080B50FF0CBFB80BD6A
:1017700080B50FF0C7FB80BD80B50FF0C3FB80BD07
:101780004EF60450CEF200004FF000610160704749
:1017900080B5930706D4D20700F10C0014D10FF0E6
:1017A000C9FA80BDC06802F0010C00EA010353EAE7
:1017B0000C0218BF024610468B4218BF0020BCF135
:1017C000000F08BF104680BD0FF08CFA80BD0000EE
:1017D00080B50C300FF068FB80BD00007047000042
:1017E00080B540F23712C8F2010215F011FB80BD3E
:1017F00080B540F23112C8F20102014615F008FB33
:1018000080BD000080B540F23812C8F2010215F028
:10181000FFFA80BD80B540F23312C8F2010215F024
:10182000F7FA80BD11F1110208BF704780B540F290
:101830003412C8F2010215F0EBFABDE8804070479F
:1018400080B540F23212C8F2010215F0E1FA80BD13
:1018500080B513F083F815F0FFF980BD80B515F061
:10186000FBF980BD4EF60450CEF200000068102156
:1018700001EA10607047000010B5242043F2545E66
:10188000C4F20000C2F2000E43F2505C0268DEF8BF
:101890000030C2F2000CBCF80000D11A0144002450
:1018A000B4EB114FCEF8002017D1B1F57A7F20D3D9
:1018B0001044C01A44F6D351A0F57A70C1F2620107
:1018C000A0FB01124FF618439109CFF6FF7301FBFD
:1018D0000301012000EB92120CE044F6D350C1F258
:1018E0006200A1FB000292094FF47A7002FB101112
:1018F00000E0002243F25863C2F200031868ACF81B
:1019000000101044186010BD80B5032000F09EF850
:101910000F2000F009F800281CBF012080BD00F056
:1019200093F8002080BD000080B510F0BDFA0020C3
:1019300080BD00000246022082F83600506801286F
:1019400008D0906AB0F5000F04D11068C36823F482
:101950006063C3601068036943F001030361816140
:10196000016941F0040101610121002082F8361073
:1019700070470000002804BF012070472DE9F041A6
:10198000044690F8360028B9002084F83500204637
:1019900000F058F8022084F83600D4E900C2DCF8E0
:1019A0000C30012A02D123F01E0305E0A06AB0F535
:1019B000000F08BF23F01E03A168D4F814E0D4E997
:1019C00008564FF6FF7741F23818BE454FF2F81728
:1019D00041EA0201A06ACFF6197818BF03EA0803AA
:1019E000CFF6197729433B4031431943012A41EA95
:1019F000000218BFB0F5000F04D1D4E90301104371
:101A000040EA01024FF6FF70864506D0D4E9060190
:101A100042EA0E02104340EA010247F60040CCF8C9
:101A20000C20C4F20000E16A844502D0CCF82010FA
:101A300002E0226B11430162012084F8360000208D
:101A4000BDE8F081704700007047000080B50EF0DF
:101A500007FD80BD47F20000C4F200000168322299
:101A600021F48041016040F29C11C2F2000109683A
:101A700051434DF68362C4F21B32A1FB02120121D5
:101A800001EB924143694A1E8A4203D213F400716A
:101A90001146F7D140690321800501EAE0707047E3
:101AA00047F20000C4F20000016841F48041016087
:101AB0007047000047F20000C4F20000006800F424
:101AC000C060704710B50C4647F21401C4F2000123
:101AD0000968002801F4007004D0002808BFFFF74F
:101AE000DFFF05E020B1FFF7B5FF002818BF10BDEC
:101AF0004EF61050CEF200000168012C21F00401D6
:101B0000016004BF30BF10BD40BF20BF20BF10BD6B
:101B100041F21800C4F20200816F21F020018167B8
:101B2000016821F4007101607047000041F200007B
:101B3000C4F20200016841F0040101607047000036
:101B40002DE9F04782B00446407841F2880700074B
:101B5000C4F2020702D44FF0000A2EE0E06B88B115
:101B6000B0F5400F17D0B0F5000F1BD157F87C0C23
:101B70004FF0000A40F4803047F87C0CBAF1000FB7
:101B80000ED114E0201D002101F050FF8246BAF171
:101B9000000F05D10BE04FF0000ABAF1000F06D09C
:101BA000D0460CE04FF0010ABAF1000FF8D13868C6
:101BB000E16B20F44000084338604FF00008A07843
:101BC000800701D4C24664E057F8300C10F0805909
:101BD0000BD157F8300C40F0805047F8300C57F8D4
:101BE000300C00F080500190019847F20005C4F2DB
:101BF0000005286840F480702860FFF73DFE064627
:101C00002868C00506D4FFF737FE801B0328F7D3EA
:101C10004FF0030ABAF1000F32D1B86810F44070E7
:101C200011D0216D88420BD0B868B96820F440709B
:101C300041F48031B960B96821F48031B960B8608D
:101C4000C00703D112E00020C0070FD0FFF714FE39
:101C5000064641F2893500BFB868800706D4FFF711
:101C60000BFE801BA842F7D34FF0030ABAF1000F16
:101C700006D1B868216D20F440700843C246B860B0
:101C8000B9F1000F05D157F8300C20F0805047F81B
:101C9000300C2068C1070ED1810714D481061AD4F4
:101CA000810520D4410526D441062CD4C10532D467
:101CB000800438D451E03968226A21F003011143CD
:101CC00039608107EAD53968626A21F00C01114355
:101CD00039608106E4D53968A26A21F44061114374
:101CE00039608105DED53968626B21F440211143EA
:101CF00039604105D8D53968A26B21F440111143F0
:101D000039604106D2D53968E26A21F44051114365
:101D10003960C105CCD53968226B21F440311143BB
:101D20003960800419D53968206C21F04061014385
:101D3000B0F1806F396009D0B0F1006F0DD157F864
:101D40007C0C40F4801047F87C0C06E0201D01213B
:101D500001F06CFE002818BF8246A078400719D514
:101D60003968606C21F040610143B0F1806F3960E7
:101D700009D0B0F1006F0DD157F87C0C40F4801001
:101D800047F87C0C06E0201D012101F04FFE0028E1
:101D900018BF8246607840060FD53868A16C20F0E5
:101DA00040500843B1F1805F386006D1201D022108
:101DB00001F03CFE002818BF82466078000605D579
:101DC0003868E16C20F0804008433860504602B02B
:101DD000BDE8F0872DE9F04381B000287AD042F2C7
:101DE0000008C4F202080446D8F800000D4600F0CE
:101DF000070088420CD2D8F8000020F007002843E2
:101E0000C8F80000D8F8000000F00700A84261D12F
:101E1000207841F20809C007C4F2020950D12068B5
:101E2000810707D5D9F80010A26821F0F00111430D
:101E3000C9F80010D8F8001001F00701A9420CD928
:101E4000D8F8001021F007012943C8F80010D8F88D
:101E5000001001F00701A9423CD1410707D5D9F88C
:101E60000010E26821F4E0611143C9F80010000796
:101E700008D5D9F80000216920F4605040EAC1007B
:101E8000C9F8000000F0A6F8D9F8001047F238525F
:101E9000C1F30311C0F60102515C40F29C1201F043
:101EA0001F0120FA01F140F2F820C2F200000068A0
:101EB000C2F200021160FFF737FD01B0BDE8F08308
:101EC000606858B102282BD003282ED159F8081C7D
:101ED000890107D4012001B0BDE8F08359F8081C3E
:101EE0008907F7D5D9F8001021F003010843C9F894
:101EF0000000FFF7C1FC064641F28837D9F8000020
:101F0000616800F00C00B0EB810F3FF488AFFFF781
:101F1000B3FC801BB842F1D9032001B0BDE8F083C7
:101F200059F8081C8903D5D5DCE759F8081C490580
:101F3000D0D5D7E70F22026041F20802C4F20202B4
:101F4000136803F003034360136803F0F003836036
:101F5000136803F4E063C36012684FF4E06303EABC
:101F6000D202026142F20000C4F20200006800F0F6
:101F7000070008607047000040F29C10C2F20000A9
:101F80000068704780B5FFF7F7FF41F20801C4F21F
:101F90000201096847F24852C1F30221C0F601026A
:101FA000515C01F01F01C84080BD000080B5FFF703
:101FB000E3FF41F20801C4F20201096847F2485206
:101FC000C1F3C221C0F60102515C01F01F01C840FB
:101FD00080BD000041F20C01C4F2020151F8040C72
:101FE00010F00C02086805D00C2A40D100F0030064
:101FF00001283CD151F80C0C000703D4D1F888001B
:10200000000A02E051F80C0C000947F2505300F0AE
:102010000F00C0F6010353F82030002A184618BFFD
:1020200000200C2A18BF7047086800F0030002283F
:1020300006D0032804BF41F20023C0F27A0303E074
:1020400042F20043C0F2F40308680A68C0F30210C9
:10205000C2F30622096801305A43B2FBF0F0C1F323
:102060004161022202EB4101B0FBF1F07047042A0A
:1020700007D0082A0BD141F200200023C0F27A00D9
:10208000CFE742F200400023C0F2F400C9E700208D
:102090000023C6E72DE9F04381B0002800F07281EB
:1020A00041F200060446C4F20206B068F1682278E4
:1020B00000F00C08D00601F003071CD42078C007FC
:1020C00000F0E980B8F1080F45D0B8F10C0F08BF57
:1020D000032F40D06568B5F5A02F00F0B780B5F5A7
:1020E000803F00F0B780306820F480303060306886
:1020F00020F48020B1E0B8F1000F1DD0B8F10C0F32
:1021000008BF012F18D0A169306800297AD040F0AB
:1021100001003060FFF7B0FB054600BF3068800764
:1021200000F18280FFF7A8FB401B02284FF003005C
:10213000F4D901B0BDE8F0833068800703D5A06909
:10214000002800F01F81206A316809070CD4D6F8F6
:102150009410090909E03068800340F19C806068B0
:10216000002840F098800DE1316801F0F0018842CC
:1021700016D901F01FFD002840F00481306840F0BE
:10218000080030603068D4E9072120F0F0000843EF
:102190003060706820F47F4040EA0220706014E0F4
:1021A000316841F008013160316821F0F0010143EC
:1021B00031607168E26921F47F4141EA0221716076
:1021C00001F0F8FC002840F0DD80FFF703FFB16864
:1021D00047F23852C1F30311C0F60102515C40F2DC
:1021E0009C1201F01F0120FA01F140F2F820C2F226
:1021F00000000068C2F200021160FFF795FB0028A2
:1022000097D15BE720F001003060FFF735FB054612
:10221000306880077FF552AFFFF72EFB401B022886
:102220004FF00300F4D984E7306840F008003060D4
:102230003068D4E9072120F0F0000843306070686E
:1022400020F47F4040EA0220706037E7306840F4B5
:1022500080203060306840F480303060FFF70CFB45
:10226000002D054614D000BF3068800313D4FFF75B
:1022700003FB401B64284FF00300F5D959E700BF6A
:10228000FFF7FAFA401B64284FF003003FF651AF06
:1022900030688003F4D4207880072BD5B8F1040F80
:1022A0001BD0B8F10C0F08BF022F16D0E1683068C0
:1022B000002900F0468140F480703060FFF7DCFABE
:1022C000054600BF306840050DD4FFF7D5FA401B26
:1022D00002284FF00300F5D92BE73068400502D5FE
:1022E000E06800284ED07068216920F0F85040EA7C
:1022F000016070602078000748D4207840075ED4E1
:102300002078800600F19180A06AB8B3B8F10C0F74
:1023100040F0B980012835D0F068E16A00F003028E
:102320008A422FD1226B6FF00F0300F0700103EB94
:102330000212914226D1616B00F4FE42B2EB012FF2
:1023400020D1A16B00F07842B2EBC16F1AD1E26BE1
:102350000023CFF6E07303EB025200F4C0016FF3E9
:10236000140291420ED1216C4FF07E4202EB0161CA
:1023700000F0C06001F07E41884203D1002001B02E
:10238000BDE8F083012001B0BDE8F0836169D6F8B3
:102390009400002963D040F00100C6F89400FFF7D4
:1023A0006BFA0546D6F894008007A6D4FFF764FAC6
:1023B000401B0228F6D9032001B0BDE8F083B06DC0
:1023C00010F0805908D1B06D40F08050B065B06D0C
:1023D00000F080500090009847F20007C4F2000718
:1023E0003868C00511D4386840F480703860FFF751
:1023F00043FA05463868C00507D4FFF73DFA401B8D
:1024000002284FF00300F5D993E6A568052D64D0A6
:10241000012D68D0D6F8900020F00100C6F8900099
:10242000D6F8900020F0040061E0616AD6F89800C8
:1024300000293DD040F00100C6F89800FFF71CFAD3
:10244000054600BFD6F8980080073FF55DAFFFF75F
:1024500013FA401B02284FF00300F3D969E620F07D
:102460000100C6F89400FFF707FA0546D6F8940075
:1024700080077FF542AFFFF7FFF9401B02284FF0BE
:102480000300F3D955E63168022821F080713160EC
:102490006AD1FFF7F1F905463068800140F182808A
:1024A000FFF7EAF9401B02284FF00300F4D940E699
:1024B00020F00100C6F89800FFF7DEF9054600BFDE
:1024C000D6F8980080077FF51FAFFFF7D5F9401BBE
:1024D00002284FF00300F3D92BE6D6F8900040F025
:1024E0000400C6F89000D6F8900040F00100C6F84D
:1024F0009000FFF7C1F9002D054641F2883713D04F
:10250000D6F89000800713D4FFF7B6F9401BB84205
:102510004FF00300F4D90CE6FFF7AEF9401BB842C8
:102520004FF003003FF605AED6F890008007F3D4D5
:10253000B9F1000F7FF4E4AEB06D20F08050B065CB
:10254000DEE620F480703060FFF796F9054600BFA4
:10255000306840057FF5CEAEFFF78EF9401B0228AC
:102560004FF00300F4D9E4E53068000103D4F068CB
:1025700020F00300F060F0684FF6FF71CFF6EE61D7
:102580000840F060FFF778F9044600BF306880012A
:102590007FF5F4AEFFF770F9001B02284FF003003F
:1025A000F4D9C6E5F06848F28C01C0F29D1104F13F
:1025B0002C0700EA010C8ECF6FF00F00D4E90F5406
:1025C00000EB02100022CFF6E07241EA0C0102EBB0
:1025D000055208436FF314024FF07E4540EA032092
:1025E00005EB0465104305F07E4540EAC7602843CB
:1025F000F060306840F080703060F06840F08070CB
:10260000F060FFF739F90446306880013FF5B6AE57
:10261000FFF732F9001B02284FF00300F4D988E5D8
:10262000002804BF012070472DE9F041044690F8CE
:102630005D0028B9002084F85C00204600F056F8C0
:10264000022084F85D002068D4F80CC00168BCF555
:10265000E06F21F0400101604FF0000E4CF400618A
:1026600098BF4FF0010EB1F5706F4FF0000118BF29
:10267000A162216B29B90121BCF5E06F88BF02215D
:102680002163D4E90112D4E9045604F1180898E84A
:10269000880111432943314303F40072114341EA95
:1026A0000702A16A42EA08020A430260226B022A78
:1026B0004FEA0E3203D1076847F40067076004272A
:1026C00007EA1343676A42EA0C02666B1A433A430D
:1026D00032434260B1F5005F04BFE16A016100204E
:1026E0000121206684F85D10BDE8F081704700008C
:1026F0002DE9F04381B0044640681D461746B0F509
:10270000827F0E4603D1A068002800F0858094F8EF
:102710005C00012803D1022001B0BDE8F0834FF036
:10272000010984F85C90FFF7A7F894F85D1001297F
:1027300069D18046002E4FF0010018BF002F63D0F2
:10274000042084F85D00002020662664A4F844700C
:10275000A4F84670A063A087E087A16AE064B1F5A1
:10276000005F20650DD12068016821F400510160EF
:10277000016841F400510160B4F846000138A4F842
:1027800046002168D4E902204B68B0F5E06F23F4DD
:10279000805398BF03F58053B2F5004F4B6004D1CE
:1027A00021680A6822F480420A6021680A68520699
:1027B00003D40A6842F040020A60B4F84610B0F54B
:1027C000E06F36D8002952D06E1C0EE0007B216CE1
:1027D0000870206C01302064B4F846000138A4F879
:1027E0004600B4F84600002841D020688168C90737
:1027F000ECD1FFF741F8002EF3D0A0EB0800A8427F
:10280000EFD3032000E00220002184F85D9084F8DB
:102810005C1001B0BDE8F083042084F85D00204620
:10282000314632463B46009500F07EF901B0BDE8E6
:10283000F083E1B16E1C0CE0C068216C21F8020B42
:102840002164B4F846000138A4F84600B4F8460004
:1028500068B120688168C907EED1FFF70DF8002E36
:10286000F4D0A0EB0800A842F0D30320CCE7A06A84
:10287000B0F5005F44D12068012201682B4641F485
:102880008051016020460121CDF8008001F09AFAC4
:1028900008B10320B8E7E1682068B1F5E06F03D91B
:1028A000C068216C088002E0007B216C0870204623
:1028B000012101222B46CDF8008001F083FA28B1D6
:1028C000206E40F00200206603209DE7E06821684A
:1028D000B0F5706F01D1C86812E0097BB0F5E06F08
:1028E0000ED1206B02280BD12046012101222B465C
:1028F000CDF8008001F066FA0028E1D12068007B65
:1029000020462946424601F09DF900281CBF2020A0
:10291000206620688168C90606D5216E41F0020153
:1029200021664FF6EF718160206E002818BF0120EC
:102930006AE700002DE9F04381B0044690F85C009E
:10294000012803D1022001B0BDE8F0834FF0010956
:102950001D4616460F4684F85C90FEF78DFF94F8EE
:102960005D10012969D18046002F4FF0010018BF8A
:10297000002E00F0CE80032084F85D000020206649
:10298000A763A687E6872064A4F84400A4F846005D
:10299000A168C4E91300B1F5004F04D120680168B3
:1029A00041F480410160A06AB0F5005F08D1206861
:1029B000016821F400510160016841F40051016097
:1029C00020680168490603D4016841F040010160B4
:1029D0006168731EE268B1FA81F1B3FA83F34909C1
:1029E0005B09B2F5E06F41EA030128D939B1A16B67
:1029F0000988C160B81CA063E08F0138E087E08FD0
:102A000000285DD06E1C0AE0A16B31F8022BC26079
:102A1000A163E08F0138E087E08F002850D0206864
:102A200081688907F0D4FEF727FF002EF4D0A0EBD1
:102A30000800A842F0D303206BE0022069E00029DF
:102A40004FF6FE7112D0E28F022A06D3A26B1288D3
:102A5000C260B81C4FF6FE7204E03A780273A06BB5
:102A60004A1C0130A063E08F1044E087E08F38B348
:102A70006E1C4F1C0CE0A16B0978017301203946D4
:102A8000A26B1044A063E08F0844E087E08FB8B1E8
:102A900020688168890709D4FEF7EEFE002EF5D084
:102AA000A0EB0800A842F1D33BE000BFE18F022970
:102AB000E1D3A16B0988C16002204FF6FE71DFE708
:102AC000A06AB0F5005F04D12068016841F480512C
:102AD000016020462946424601F0F8F800281CBF54
:102AE00020202066A06840B1B0F5004F0DD12068CD
:102AF000016821F04001016007E00020009020689B
:102B0000C1680091806800900098206E002818BF6E
:102B10000120002184F85D9084F85C1001B0BDE8CC
:102B2000F0830320F5E700002DE9F04F81B0044663
:102B300090F85C00012801D102259CE101201E468D
:102B400017468A4684F85C00FEF796FE94F85D50BE
:102B5000D4E90031012D1A68D3F804C0814640F051
:102B6000A480BAF1000F4FF0010518BF002F00F04C
:102B70007C81002E00F0798194F85D0004281CBF50
:102B8000052084F85D00002020662764A4F84660D4
:102B9000A4F84460C4F838A0E687A76AA687B7F50A
:102BA000005FE064206507D1186820F400501860C9
:102BB000186840F400501860E0685F68B0F5E06F96
:102BC00027F480552F4698BF07F58057012E88BF00
:102BD0002F465F601F687F0603D41F6847F04007D9
:102BE0001F60771EB1FA81F1B7FA87F7DDF8288008
:102BF00049097F09B0F5E06F47EA010064D940B1A7
:102C0000A06B0088D8600AF10200A063E08F013851
:102C1000E0870CF00801012702F0040087EAD101E7
:102C200041EA900508F10106E08F20B9B4F84600AA
:102C3000002800F0D8802068816889071BD5E18FC3
:102C4000012F18D1B9B1A16B31F8022BC260A16379
:102C5000E18F0139E187E18F61B9A16AB1F5005FC8
:102C600008D11DB9016841F400710160016841F4A7
:102C70008051016000278168C9070DD0B4F8461063
:102C800051B1C068216C012721F8020B2164B4F80E
:102C900046000138A4F84600FEF7EEFD002EC3D032
:102CA000A0EB09004045BFD39BE0B1F5827F09D17D
:102CB000042D4FF0020540F0D880A06800283FF4B2
:102CC00050AFD2E00225D0E04FF6FE7BA8B1E08FF6
:102CD000022807D3A06B4FF6FE710088D8600AF176
:102CE000020006E09AF800000BF101011873A06BD6
:102CF0000130A063E08F0844E0870CF00801012553
:102D000002F0040085EAD10141EA900608F10107CA
:102D1000E08F18B9B4F84600002864D020688168B4
:102D200089072CD5E18F012D29D141B3E18F0229EB
:102D300006D3A16B0988C16002214FF6FE7005E041
:102D4000A16B097801730BF101000121A26B114401
:102D5000A163E18F0844E087E08F78B9A06AB0F5FD
:102D6000005F0BD126B92068016841F40071016051
:102D70002068016841F48051016000BF002520688F
:102D80008168C90725D0B4F8461011B3B4F84610CD
:102D9000022912D3C168226C22F8021B2264B4F803
:102DA00046100239A4F84610B4F8461001290FD88D
:102DB000416841F4805141600AE0007B216C087059
:102DC000206C01302064B4F846000138A4F84600B5
:102DD0000125FEF751FD002F9AD0A0EB09004045D8
:102DE00096D3032541E0A06AB0F5005F25D12046C7
:102DF000012101224346CDF8009000F0E3FF28B105
:102E0000206E032540F0020020662EE0E168206875
:102E1000B1F5706F01D1C0680FE0007B206B022814
:102E20000BD12046012101224346CDF8009000F04D
:102E3000C9FF0028E4D12068007B20688168C906AA
:102E400001D4002507E0216E012541F00201216631
:102E50004FF6EF718160204641464A4600F036FF4A
:102E600000281EBF202020660125012084F85D0077
:102E7000002084F85C00284601B0BDE8F08F000017
:102E8000002804BF0120704710B5044690F83D00AB
:102E900028B9002084F83C00204600F00DF80220FC
:102EA00084F83D002068211D01F078F9012084F8A4
:102EB0003D00002010BD00007047000010B5044622
:102EC0000068012201F0AEF9206842F60041C4F228
:102ED000010188420BD044F20041C4F20101884252
:102EE00005D044F20001C4F20101884203D1416CD3
:102EF00041F40041416481680722C0F2010211409F
:102F0000062902D0B1F5803F01D1002010BD016833
:102F100041F001010160002010BD000090F8701028
:102F2000012904BF0220704701688A6822F4000268
:102F30008A60002180F870100846704790F8701081
:102F4000012904BF0220704701680A6822F00202CA
:102F50000A60002180F870100846704790F87010E1
:102F6000012904BF0220704701688A6842F4000208
:102F70008A60002180F870100846704790F8701041
:102F8000012904BF0220704701680A6842F002026A
:102F90000A60002180F870100846704710B5A0B193
:102FA0000446406F28B9002084F87000204600F0E5
:102FB00025F8242060672068016821F00101016084
:102FC000204601F04BFA012801D1012010BD606AB2
:102FD00010B1204601F09AF92068416821F490412F
:102FE0004160816821F02A018160016841F001019E
:102FF0000160204601F0FEF910BD0000704700009E
:10300000EFF3108000281CBF01207047EFF3118000
:10301000002818BF01207047EFF3108000281CBF64
:1030200001207047EFF31180002818BF012070477E
:10303000EFF3108000281CBF01207047EFF31180D0
:10304000002818BF01207047EFF3108000281CBF34
:1030500001207047EFF31180002818BF012070474E
:10306000EFF3108000281CBF01207047EFF31180A0
:10307000002818BF01207047EFF3108000281CBF04
:1030800001207047EFF31180002818BF012070471E
:10309000EFF3108000281CBF01207047EFF3118070
:1030A000002818BF01207047EFF30580002818BFE3
:1030B00001207047EFF30580002818BF01207047FA
:1030C000EFF30580002818BF01207047EFF305805B
:1030D000002818BF01207047EFF30580002818BFB3
:1030E00001207047EFF30580002818BF01207047CA
:1030F000EFF30580002818BF01207047B0B500F03D
:1031000037FC40F25424C2F2000401256572BFF37B
:103110004F8FFEF7A7FB002808BFB0BDFEF730FBBE
:10312000A572B0BD80B540F25420C2F2000000216B
:103130004172BFF34F8F827A12B1817200F0C6FEE6
:1031400000F020FC80BD000091FAA1F1B1FA81F1FC
:103150000068490003228A401040C84070470000C0
:1031600091FAA1F1B1FA81F1D0F820C089000F23C2
:103170008B402CEA030302FA01F119430162704704
:10318000090A91FAA1F1B1FA81F1D0F824C08900BD
:103190000F238B402CEA030302FA01F11943416229
:1031A0007047000091FAA1F1B1FA81F1D0F800C0A6
:1031B000490003238B402CEA030302FA01F119436F
:1031C0000160704791FAA1F1B1FA81F1D0F800C025
:1031D000490003238B402CEA030302FA01F119434F
:1031E0000160704743688B43514319434160704706
:1031F00091FAA1F1B1FA81F1D0F80CC04900032392
:103200008B402CEA030302FA01F11943C1607047B5
:1032100091FAA1F1B1FA81F1D0F808C04900032375
:103220008B402CEA030302FA01F1194381607047D5
:103230000068C0F3401070470068C0F3C0107047CA
:1032400047F20000C4F200000068C0F3803070470D
:10325000806800F0010070478068C0F3400070474C
:10326000C06880B270470000C068C0B270470000FC
:10327000426822F480521143416070478181704757
:1032800001737047416941F00201416170470000DC
:10329000F0B581B00DF0A2FF42F6C840C2F20000C6
:1032A000017840F27034C2F2000431B100210170A3
:1032B0002068012141600FF067FA20680168C907A2
:1032C0001CBF81685FEAC1710BD1206801680907E2
:1032D00044BF81685FEA017108D40DF0C1FF01B0FD
:1032E000F0BD012141600FF04FFAEEE70821416087
:1032F00042F6C940C2F20000012143F28854017035
:10330000C2F20004207818B112F054F900202070A5
:1033100042F6D044C2F2000420780028DDD043F207
:103320005855C2F20005287890B142F6CC46C2F258
:10333000000637680FF038FA063080B287421ED98F
:1033400030684FF6FA71084480B20FF037FA18E08F
:1033500042F63445C2F20005287840B142F6CC402E
:10336000C2F2000006680FF01FFA864207D942F643
:10337000CC40C2F2000000680FF020FA03E00FF02A
:1033800023F90020287000202070A6E770B582B0D5
:10339000064601A814460D46019311F0F7FDC0F34F
:1033A000C0012970010901983170694600F0A6F842
:1033B000DDE900210144022A019104DB01A811F09A
:1033C000EBFD2080012002B070BD000070B582B01E
:1033D000054601A80C46019211F0D8FD00F0F0005E
:1033E000202817D10198694600F088F8DDE900210E
:1033F0000144022A01910BDB01AE304611F0C6FDFB
:1034000000F001002870304611F0C0FD207001204E
:1034100002B070BD002002B070BD00002DE9F04187
:1034200082B00D460B990446002701A8984616461F
:103430000191009711F0AAFD00F0F00130292ED182
:10344000C0F3C0012170C0F34101296000F0010107
:103450000198089F3170694600F050F801990844BE
:1034600000990190461801A93846324611F09CFD9A
:1034700090B10198301A11D428680A9C099D01283E
:1034800004DB01A811F088FDA8F8000001980127CD
:10349000311A2160286002E0002700E0002738464A
:1034A00002B0BDE8F08100002DE9F04381B00C4688
:1034B0008146002501270DF103080D60032D01D978
:1034C00001260FE0404601210126C847012809D105
:1034D0009DF80300216800F07F0007FB0010FF014A
:1034E0000026206005F101051EB99DF903000028A2
:1034F000E4D4284601B0BDE8F083000080B542F274
:103500004452C2F20002106040F6D960C0F60100D9
:10351000FFF7CAFF80BD000080B54FF0FF3200BF4B
:10352000CB1701EB536C2CF07F03A1EB030E7F292B
:10353000C8BF4EF0800E7F294FEAEC1100EB02036A
:1035400002F1010283F801E0EADC501C80BD0000BA
:1035500070B505680C4625B12846FDF74AF80646C1
:1035600001E0D0E901652046FDF743F886421CBF23
:10357000002070BD284621463246FDF765F8B0FAB6
:1035800080F0400970BD00007F28BEBF02210844C2
:10359000704743F6FF718842BEBF0321084470475D
:1035A0004FF6FE72C0F21F0205219042B8BF0421FF
:1035B0000844704770B582B00429019003DA6FF0B7
:1035C000010002B070BD911FB1FA81F149094900B3
:1035D000044603F0010041EA021141EAC00001AED5
:1035E000069DC1B2304613F091FD01980221FFF70C
:1035F00093FF0199084401903046294613F08CFD51
:103600000198001B02B070BDF0B581B00446009077
:10361000104615460E4600F08BF80746FFF7B4FF3C
:10362000B04203DD6FF0010001B0F0BD6E463046E0
:10363000102113F06BFD00983946FFF76DFF0099DC
:103640002F7A0844009048F29C7048F2A171C0F6AD
:103650000100C0F60101042F08BF0146304613F0F7
:1036600041FD042F18BF03273046394613F04EFDA5
:10367000A87EE97E022202EA4000002918BF01214B
:1036800040EA810709D095F83D0095F83C1060F3B9
:10369000C40701F0010047EA4017286C10B167F039
:1036A0007F0704E0A86C002818BF67F07F07E86C6C
:1036B00010B147F0400704E0686D002818BF47F0DC
:1036C00040076E46F9B2304613F020FD298B304694
:1036D00013F022FD05F10C030ECB304613F02AFD4A
:1036E000E87E60B105F124030ECB6E46304613F040
:1036F00021FD05F130030ECB304613F01BFDB7F171
:10370000FF3F0BDD780605D505F14C030ECB68466F
:1037100013F010FD0098001B01B0F0BD05F140034F
:103720000ECB684613F006FD7806F3D5ECE70000F3
:1037300070B50446057AC068D4E9041200F0B0F808
:103740000221042D08BF0C21E27E032D08BF0E21AB
:1037500001EB000572B104F1240207CA00F0A0F8E1
:10376000D4E90C31A26B0646184600F099F8A91965
:103770000844051D206C08B9A06C30B104F140026A
:1037800007CA00F08DF82844851CE06C08B9606D0C
:1037900030B104F14C0207CA00F082F82844851CBD
:1037A000284670BD80B50C2200F060F880BD000096
:1037B0002DE9F04F83B0DDE90E7B1E46109BDDF84E
:1037C00048901546884604460290304639465A4687
:1037D000CDF8009000F03CF88246FFF7D5FE40455A
:1037E00004DD6FF0010003B0BDE8F08F0C9806F027
:1037F000030100F0010065F3C30040EA410002AD9F
:10380000C846DDF8449000F13001284613F07EFCF4
:1038100002985146FFF780FE0299109B08440290DF
:10382000284639465A4613F085FC012E03DB0D99D4
:1038300002A813F071FC029849464246FCF79BFE31
:10384000029840440290001B03B0BDE8F08F0000D6
:10385000B0B5049D0446084611461A4600F020F80B
:103860002918881C002CC8BF081DB0BD10B582B037
:103870000229019003DA6FF0010002B010BD044686
:103880001001C1B201A813F041FC01980021FFF71B
:1038900043FE019908440190001B02B010BD0000D6
:1038A000002804BF0846704780B5FCF7A2FE80BD23
:1038B000084470477047000010B5044628300DF0EA
:1038C00085FA58B1E46A4CB1A01C0DF0F9FA18B1B0
:1038D000A468002CF8D10024204610BD0024204606
:1038E00010BD000010B584465CF8303F5BB191F824
:1038F00003E0DA7872450BD21A465B686BB1DC786C
:103900007445F9D305E00022C1E90122C1620DE04E
:103910000022C1E90132083303E0C1E9013200F1BC
:103920002C031960002A18BF02F1040C2830CCF8CF
:1039300000100DF093FA10BDD1E9012C02F108033B
:10394000002A08BF00F12C03C3F800C089680B1DD2
:10395000002908BF00F130031A60704780B540F6B7
:10396000A800C2F20000006808F0CEFB80BD000095
:1039700080B540F6A800C2F20000006808F0FEFA28
:1039800080BD000080B508F0F5F908F0E7FA80BDC9
:1039900080B508F09BFB80BDB0B5B0F57A7F15D13E
:1039A0000D4608F093FB044601F0C4FC204629466E
:1039B00001F0A6FB204601F099FBA8420ED1002C95
:1039C00002D4204601F082FB0020B0BD49F22D1147
:1039D00006A0C0F6010132220FF054F949F22D1170
:1039E00006A0C0F601013F220FF04CF96672657126
:1039F000203D3D20313030300000000068616E64B1
:103A00006C6572203D3D202849525148616E646CBE
:103A100065725F74294E5649435F47657456656306
:103A2000746F722869727129000000002DE9F0415D
:103A300041F20004C4F20204E2680E469107804697
:103A400013D0E168D8F8000001F0030181420AD1E7
:103A500048B1E068D8F80410C0F302100130884281
:103A600001D100253AE0012538E0D8F8000003280C
:103A70000DD0022819D0012821D12168012301F09D
:103A80000202C1F3400183EA5205D9B926E0216858
:103A900089034FF0010145D4226802F4802381EAB2
:103AA0009345C2F3804169B918E02168012301F40C
:103AB0008062C1F3802183EA922519B90EE00125C5
:103AC000002159B1E168D8F8042021F073016FF0AA
:103AD0000F0303EB021208431043E06015B12846C0
:103AE000BDE8F081206820F080602060FDF7C4FE12
:103AF000074600BF2068000105D5FDF7BDFEC01BCD
:103B00000328F7D30325002DE9D1012E0ED00EBBDB
:103B1000206948F2FF01C0F2FF710140D8E902209C
:103B2000C00627E000250029CCD1D7E748F2FF01E5
:103B30002069CFF6FF1101F1B4610140D8F81000FF
:103B40000023CFF6E073D8F8082003EB00506FF3A2
:103B500014000FE0206948F2FF01CFF6FF11014089
:103B6000D8F814004FF07E43D8F8082003EB00602B
:103B700000F07E4041EA022108432061206840F0C5
:103B800080602060FDF778FE064600BF20680001D7
:103B900005D4FDF771FE801B0328F7D30325002D04
:103BA0009DD1D8F818002169084320612846BDE856
:103BB000F0810000B0B582B041F25805C4F20205B0
:103BC00029680446C90015D4286840F08050286050
:103BD000286800F0805001900198FDF76BFF29687C
:103BE00021F080512960B0F5007F08D0802C0DD9DC
:103BF000032015E0FDF75EFFB0F5007FF6D1812CC4
:103C00000DD30120A02C88BF022009E0A4F1700090
:103C1000B0FA80F04009802C08BF022000E00020AC
:103C200042F20001C4F202010A6822F007020244D3
:103C30000A60096801F00701081A18BF012002B0E4
:103C4000B0BD000070B582B0044640681646B0F5BD
:103C5000827F0D460BD1A068B0F5004F02D0B0F5C1
:103C6000806F04D12068016821F040010160204686
:103C7000802100222B46009600F0A4F828B1206E87
:103C8000032540F0200020661DE06068B0F5827FCB
:103C900016D1A068B0F5004F02D0B0F5806F11D1F9
:103CA00020464FF4C06100222B460096002500F00C
:103CB00035F840B1206E032540F02000206602E078
:103CC000002500E00025284602B070BD70B582B026
:103CD0000D4616464FF4C05100222B46044600966E
:103CE00000F01CF888B92046802100222B4600965F
:103CF00000F068F848B920464FF4C06100222B4616
:103D00000096002500F00AF820B1206E032540F04F
:103D100020002066284602B070BD00002DE9F04763
:103D200081460068154682680E461140A94202D1BC
:103D30000020BDE8F08786F4C0612943DDF82080CB
:103D4000B1FA81F19A464C095F1C05E0D9F80000F0
:103D500081683140A942EBD0002C18BF007B002FB6
:103D6000F4D0FDF789FDA0EB08005045EED3D9E96A
:103D700000014268B1F5827F22F0E00242600BD17F
:103D8000D9F80810B1F5004F02D0B1F5806F03D11A
:103D9000016821F040010160D9F82810B1F5005FF9
:103DA00007D1016821F400510160016841F400511C
:103DB0000160012089F85D00002089F85C00032083
:103DC000BDE8F0872DE9F04381B081460068806846
:103DD0000840401AB0FA80F04009904203D1002018
:103DE00001B0BDE8F083DDF8208015460E461F4681
:103DF0005C1C09E0D9F8000080683040801BB0FAF4
:103E000080F04009A842EAD0002CF3D0FDF734FD41
:103E1000A0EB0800B842EDD3D9E900014268B1F542
:103E2000827F22F0E00242600BD1D9F80810B1F590
:103E3000004F02D0B1F5806F03D1016821F040013D
:103E40000160D9F82810B1F5005F07D1016821F4AD
:103E500000510160016841F400510160012089F8BE
:103E60005D00002089F85C00032001B0BDE8F0830C
:103E7000B0B54EF62254CEF20004FF202070207818
:103E800080F0FF00B0FA80F0C0F120050CF0D8FA05
:103E9000A84228BF451CFE20A84004F8030CB0BD72
:103EA00080B50C300CF06AFF002818BF012080BDDF
:103EB00010B5C18904460C300CF0A4FFE289002142
:103EC000904238BF0121084610BD00004EF6045054
:103ED000CEF200004FF08051016070474EF6045062
:103EE000CEF200004FF080510160704780B500F0C5
:103EF00011F8002818BF80BD01A00DF07DFD00BFA6
:103F0000536574537973436C6F636B206661696C9E
:103F100065640A00F0B597B001AD0024284644213D
:103F20001694CDE91444CDE91244FCF74BFB04266A
:103F30000127284601960B940397FEF7ABF848BB80
:103F4000FDF7E6FD1320CDE90104B0200990022021
:103F5000CDE90B0706200D9028200E900720CDE913
:103F60000F0601A80494CDE907741196FEF792F8A4
:103F700080B9FDF7DBFD0F20129003201390002085
:103F8000CDE91400169012A80421FDF723FFB0FA22
:103F900080F04409204617B0F0BD000080B582B023
:103FA000072853D8DFE800F0043F15525252522A36
:103FB00041F24C00C4F20200016841F001010160CD
:103FC000006800F00100019001984FF0904002B0AD
:103FD00080BD41F24C00C4F20200016841F00401CE
:103FE0000160006800F004000190019840F2004078
:103FF000C4F6000000F5806002B080BD41F24C00C4
:10400000C4F20200016841F080010160006800F024
:1040100080000190019840F20040C4F6000000F5D5
:10402000C05002B080BD41F24C00C4F202000168F1
:1040300041F002010160006800F002000190019867
:1040400040F20040C4F6000002B080BD01A00DF0B7
:10405000D3FC00BF50696E6D6170206572726F7223
:104060003A2077726F6E6720706F7274206E756D74
:104070006265722E00000000C0064FF0200058BF9D
:104080006020704741F20C00C4F2020050F80C1C92
:10409000090703D4D0F88810090A02E050F80C1C74
:1040A000090947F2505250F8043C01F00F01C0F6E4
:1040B000010252F82110C3F38102DFE802F02F025F
:1040C000070C42F20041C0F2F40127E041F2002166
:1040D000C0F27A0122E00368026803F00303C2F32E
:1040E0000212022B02F1010206D0032B04BF41F29F
:1040F0000021C0F27A0103E042F20041C0F2F40173
:104100000368B1FBF2F1C3F3062203685143C3F322
:104110004162022303EB4202B1FBF2F140F29C1236
:10412000C2F20002116050F8040C47F23851C0F39B
:104130000310C0F60101085C116821FA00F010605C
:10414000704700004EF68850CEF2000001684FF034
:10415000000C41F47001016041F20001C4F202015F
:104160000A6842F001020A60C1F808C00B684FF605
:10417000FF72CEF6F6221A400A604FF48052CA60EF
:104180000A6822F480220A60C1F818C040F20001D7
:10419000C0F6000140F8801C70470000B0B542F640
:1041A000004E0368C4F2010E704502D0B0F1804F9A
:1041B00003D14A6823F07003134343F6FF72C4F23D
:1041C000010244F2004C9042C4F2010C05DCB0F153
:1041D000804F0AD0704508D00BE0604505D044F20E
:1041E0000002C4F20102904203D1CA6823F4407372
:1041F00013434C6923F080020B688D68224370459D
:104200000260C562836218BF604504D10969016319
:1042100001214161B0BD44F20002C4F201029042AA
:10422000F6D1F3E780B501F01F014FF0010CD0F893
:1042300020E00CFA01F32EEA03030362036A02FA98
:1042400001F11943016280BD7047000080B59307FA
:1042500006D4D20700F1280014D10CF07DFD80BDFA
:10426000806A02F0010C00EA010353EA0C0218BF55
:10427000024610468B4218BF0020BCF1000F08BF59
:10428000104680BD0CF042FD80BD000010B540F22C
:10429000542CC2F2000CDCF84430FBB11A698A429B
:1042A00006D9B3FA83F24FEA521E00240BE000BF96
:1042B0001C46DB68891A93B11A699142F8D2B3FAA5
:1042C00083F24FEA521EBEF1000FC0E902430161C2
:1042D00008D11A699860511A196103E00024C0E9F5
:1042E0000243016104F10C01002C08BF0CF14401F0
:1042F000086010BDC16800291CBF8068886040F25A
:104300005420C2F2000041647047000080B5416A49
:10431000CA070CD18A0715D44A071ED40A0727D426
:10432000CA0630D48A0639D44A0657D541E0026815
:10433000D0F828C0536823F4003343EA0C035360D9
:104340008A07E9D50268D0F82CC0536823F480337B
:1043500043EA0C0353604A07E0D50268D0F830C046
:10436000536823F4802343EA0C0353600A07D7D52C
:104370000268D0F834C0536823F4004343EA0C03C6
:104380005360CA06CED50268D0F838C0936823F4CB
:10439000805343EA0C0393608A06C5D50268D0F8BF
:1043A0003CC0936823F4005343EA0C0393604A062D
:1043B00014D50268D0F840C05368BCF5801F23F4C0
:1043C000801343EA0C03536008D1D2F804C0D0F83C
:1043D00044E02CF4C00343EA0E035360090658BFBF
:1043E00080BD0168806C4A6822F400221043486056
:1043F00080BD0000B0B582B004460020E067FDF744
:104400003BFA21680546096809070BD56FF07E4C19
:1044100020464FF4001100222B46CDF800C000F0DA
:1044200047F978B92068006840070ED56FF07E4CD8
:1044300020464FF4800100222B46CDF800C000F04A
:1044400037F910B1032002B0B0BD20206067A0672B
:10445000002084F8700002B0B0BD000070B50446C2
:104460002269D4E90213006866690A43E1693243AC
:10447000066846F6F315CEF6FF750A432E40324322
:104480000260426822F440521A43426048F200023D
:10449000A369C4F2000290421CBF266A33438668B7
:1044A00026F43066334344F20046C4F20006B042BC
:1044B00083600ED0904213D043F60003C4F2010390
:1044C000984246D141F28803C4F202031B6874A6E5
:1044D0000DE041F28803C4F202031B689B0805E06B
:1044E00041F28803C4F202031B689B0A68A603F02A
:1044F000030356F8233090422ED00120B1F5004F2F
:1045000013D1082B4FF0000100F2718044F6000235
:10451000C0F2E812DFE803F0055A646B5E6B6B6B68
:104520006200FDF72FFD42005AE0082B4FF0000219
:1045300000F27A8042F20041C0F2F401DFE803F0B9
:1045400005636D74677474746B00FDF71BFD0146A1
:1045500063E010239042D0D14FEA7306042E14D8A2
:1045600042F20041C0F2F4010025DFE806F003103A
:10457000070E29000025FDF705FD02E00025FDF7E7
:1045800029FD014629B9284653E0002101250029CB
:10459000F9D0626802EB420081424FF0010048D33B
:1045A0001303994245D80120042E4FF0000161D831
:1045B000DFE806F003434B605900FDF7E3FC46E0FB
:1045C0004FF4004100250029E3D1DCE7FDF7EEFCC4
:1045D000420005E0FDF7FEFC420001E04FF48032AE
:1045E000606802EB5001B1FBF0F081B200201029AD
:1045F00007D321F00F02C1F3420123681144D960AF
:1046000017E0012015E0FDF7D1FC014605E0FDF7BC
:10461000E1FC014601E04FF40041606801EB50010C
:10462000B1FBF0F082B20020102A26BF2168CA60D8
:1046300001200021C4E9181170BD0020CFF22440F0
:1046400010EB52004FF0000106E0FDF7C3FC62687A
:10465000010E000210EB520041F100010023FBF7B4
:10466000D3FE014605E04FF4000000EB5200B0FB22
:10467000F2F128464FF6FF43A1F54072C0F20F0356
:104680009A4202D82268D160D3E70120D1E700BF67
:10469000000000000400000002000000080000000C
:1046A00001000000040000000200000008000000FB
:1046B0002DE9F04381B004460068C0690840401A03
:1046C000B0FA80F0400990422FD1DDF820801546E5
:1046D0000E46994608F1010709E000BF2068C0694D
:1046E0003040801BB0FA80F04009A8421DD1002F55
:1046F000F4D0FDF7C1F8B8F1000F03D0A0EB09002A
:104700004045EBD92068016821F4D07101608168CF
:1047100021F00101816020206067A067002084F8FB
:104720007000032001B0BDE8F083002001B0BDE8B7
:10473000F083000080B50BF027FF0BF03BFF0BF080
:1047400043FF0BF04BFF0BF053FF0BF067FF0BF039
:1047500077FF80BD70B588B00C9E03AD1446009302
:104760002A460123019601F007F80646204629460D
:1047700002F024FB06EAE67008B070BD2DE9F041B6
:1047800086B00DF1080C0DF138088CE80F0040F2EE
:10479000F44098E89001DDE90C65C2F200000BF0EE
:1047A00057F90BF0B7FA88B140F2F440C2F20000BA
:1047B0000BF072F931462A4623460097CDF8048063
:1047C0000BF076FA002006B0BDE8F08102A8314671
:1047D0002A4623460097CDF804800BF091FA06B0E4
:1047E000BDE8F081B0B582B043F28C54C2F200044F
:1047F00020460821002206F0C9FC48F28041C0F2A0
:104800001E01204606F072FD42F22450C2F2000062
:10481000012105F0D9F96846012200230BF012FCB2
:10482000009807F025FF42F24054C2F200042568C8
:1048300000F024FB854209D168460A2200230BF0D0
:1048400001FC009807F014FF02B0B0BD00F016FBA9
:104850000146206028A0FCF7FDFE2068B0F5967F99
:1048600016DD42F69040C2F20000012105F0ACF9DD
:1048700042F6AC40C2F20000002105F0A5F942F674
:104880007440C2F20000002105F09EF934A02EE031
:10489000152816DB42F67440C2F20000012105F033
:1048A00093F942F69040C2F20000002105F08CF925
:1048B00042F6AC40C2F20000002105F085F921A0CB
:1048C00015E042F6AC40C2F20000012105F07CF98F
:1048D00042F67440C2F20000002105F075F942F67C
:1048E0009040C2F20000002105F06EF90CA0FBF729
:1048F00031FD02B0B0BD00BF416D6269656E7420CC
:104900006C69676874207363616C656420746F20E0
:104910004C5558203D20202725306427200D0A00C3
:104920004C6969616E2068C3A46DC3A472C3A4C33B
:10493000A4207479C3B6736B656E74656C79796EF7
:104940000A000000536F706976612076616C6F20F9
:104950007479C3B6736B656E74656C79796E0A0091
:104960004C6969616E206B69726B617374612C2094
:1049700073696C6D69696E20736174747575210A51
:104980000000000080B500F005F880BD80B500F0A3
:1049900003F880BD7047000080B50168096F884743
:1049A00080BD00000068704700687047006870476D
:1049B0002DE9F04389B0DDE910CE179CDDE91295B1
:1049C0000DF1500808940024CDE900CE0DF1100C33
:1049D00098E8C001CDE902498CE8E00100F082F8D6
:1049E00009B0BDE8F08300000160704701607047C6
:1049F000016070472DE9F04182B01E461123A6FBED
:104A000003358846002D47F64F41074618BF01255C
:104A1000002D18BF4FF0FF33C0F6010118461446B1
:104A20000BF092FCF0B10546DDE9080C4146009020
:104A300038462A463346CDF804C000F09DFE804635
:104A400001280BDB2F4646462046394602F0B6F9D0
:104A5000013E07F1110704F11804F5D128460BF0C7
:104A60001DFC03E04FF24148CFF6FF78404602B00C
:104A7000BDE8F08110B5044640F29C50C2F200003F
:104A80000BF032F807F052FF40F250520021C2F210
:104A9000000202E00131052907D052F82100002868
:104AA000F8D00368A342F5D100E000204FF245445E
:104AB000CFF6FF7458B190F85B10022907D002219D
:104AC00080F85B1014300021002406F051FE40F203
:104AD0009C50C2F200000BF007F807F049FF204697
:104AE00010BD00002DE9F04F95B00E468346DDE97C
:104AF0001E104FF24148CDE9131040F29C50C2F213
:104B00000000CFF6FF78CDE911230AF0EDFF07F0A2
:104B10000DFFBBF1000F08F1040A52D036B1304648
:104B2000FBF767FD0746FF2F03DD42E00027FF2F5D
:104B30003FDC002F3DD047F64F41269D209CC0F61C
:104B40000101AA200BF000FC8146304629464A4666
:104B500000F09AFD8246C4B3BAF1010F54DB182469
:104B6000AAFB0401002918BF0121083028BF4FF01B
:104B7000FF30002947F64F41C0F6010118BF4FF042
:104B8000FF300BF0E1FB002800F0C780C0E9004ACD
:104B900000F108040AEB4A00C500204602F03CF987
:104BA000183D00F11800F9D1BAF1010F80F2B98077
:104BB000C4E040F29C50C2F200000AF095FF07F0FA
:104BC000D7FE504615B0BDE8F08FBAF1010F1BDBE0
:104BD0000BAC2046494600224FF0000A02F000F9D3
:104BE00040F29C50C2F200000AF07EFF07F0C0FEC7
:104BF00011A8012122460BF0D9F848460BF04EFBD4
:104C0000204602F013F9DCE7B9F1000F02D0484664
:104C10000BF044FBDDF890A040F250590024C2F2A2
:104C2000000900BF59F8240020B10134052CF9D146
:104C30004FF0FF34B4F1FF3F40F3A98047F64F41F6
:104C4000C0F601015C200BF0AFFB002800F0E8800B
:104C500005460AF075FB002D00F0E68047F64F414F
:104C6000781CC0F601010BF06FFB0028E86000F033
:104C7000E5803146FBF7DFFCA8F10C006860209866
:104C800040F2002668632698C0F20A06C5F856600E
:104C900048F6940611AF85F838000020C0F20106EE
:104CA0008ECFC5E91360259EC5F808B0C5E904613B
:104CB00005F118018CC12199239B69622299EB624D
:104CC000A96240F23821C2F200010A68C5F830A09A
:104CD000531C0B600021C5E90F006864A5F854005F
:104CE000A5F85A00B2F5004FA8BF01222A6003E0E0
:104CF00001310130052854D059F82020002AF8D07D
:104D0000EB6B002BF4D1D36B002BF1D097685F4590
:104D1000EED1EB63126C2A64EAE70024BAF1010FCA
:104D20000CDB26464F4655463046394602F046F8DB
:104D3000013D07F1110706F11806F5D140F29C502C
:104D4000C2F200000AF0D0FE07F012FE11A8514690
:104D500022460BF02BF8B9F1000F02D048460BF0B9
:104D60009DFA002C3FF42DAF54F8040CA4F1080672
:104D700048B100EB4000C500183C00BF601902F0CC
:104D800055F8183DFAD130460BF088FA19E740F291
:104D90009C50C2F200000AF0A7FE07F0E9FDC246EF
:104DA0000FE7E86C4FF4FA7201FB020040F28C51FD
:104DB000C2F20001097849F824500029E86450D172
:104DC000D5E909B045F669610690D5E90B7AC0F6D8
:104DD000000107A806F0C6FF07AE47CE6423CDE961
:104DE00002120699CDE9003058463A4653460496D9
:104DF000FFF7C4FC78B3E868002818BF0BF04EFA40
:104E000028460BF04FFA002049F8240040F29C504D
:104E1000C2F200000AF068FE07F0AAFDC246D0E622
:104E20000025002D7FF41AAF40F29C50C2F2000022
:104E30000AF05AFE07F09CFDC246C2E628460BF077
:104E400031FA40F29C50C2F200000AF04DFE07F029
:104E50008FFDC246B5E640F28C510120C2F200013E
:104E6000087001F03FF940F29C50C2F200000AF0D5
:104E70003BFE07F07DFDD5F800A0A2E670B582B03C
:104E800042F22454C2F200042046002104F09CFEA9
:104E90006846012200230BF0D5F8009807F0E8FBE4
:104EA00043F28C55C2F200052846002106F01EF997
:104EB00006462846002106F019F90546204601213C
:104EC00004F082FE6846012200230BF0BBF8009834
:104ED00007F0CEFBC5F3031040EA0610C0B200EEA7
:104EE000100A9FED061AB8EE400A20EE010ABDEE48
:104EF000C00A10EE100A02B070BD00BF8FC2D540CC
:104F000008230268002908BF0C23C05802607047BC
:104F100070B5044600681546826A0E46204619465A
:104F2000904720683146036920462A469847002862
:104F3000D8BF01F0C9F870BD10B5044606F004F8FA
:104F400000B110BD204606F007F8002818BF10BDBC
:104F500000F05CF840F6AC00C2F2000010BD0000AA
:104F600080B50DF0B7F9002818BF012080BD000002
:104F700001684A1C0260087870470000B0B504461A
:104F8000FFF7F6FF05462046FFF7F2FF40EA05204F
:104F9000B0BD000080B543F26850C2F20000006866
:104FA000002808BF80BD4FF0FF310EF02BFE80BD02
:104FB00080B543F26850C2F200000068002808BFC4
:104FC00080BD4FF0FF310EF01DFE80BD80B543F275
:104FD0006850C2F200000068002808BF80BD4FF092
:104FE000FF310EF00FFE80BD80B540F2F812C2F224
:104FF000000252F820308B4204D012F0B7F8092199
:10500000016080BD002142F8201080BD80B540F2D3
:10501000E040C2F200000078BFF35F8FC00700D00D
:1050200080BD40F2E040C2F200000BF04BFA0028D5
:1050300008BF80BD40F6AC0048F29C51C2F20000AF
:10504000C0F601014FF4165201F034FC40F2E0408A
:10505000C2F200000BF06AFA80BD00000268531C27
:10506000036011707047000070B50D46114614467C
:105070000646FFF7F3FF306829462246FBF77BFA26
:1050800030682044306070BDB0B50C46090A054652
:10509000FFF7E4FFE1B22846FFF7E0FFB0BD0000F4
:1050A000B0B50446FFF764FF05462046FFF760FFF2
:1050B000000440EA05652046FFF75AFF45EA00254F
:1050C0002046FFF755FF2844B0BD0000002848BF28
:1050D000704700F01F01012202FA01F14EF20012A6
:1050E0004009CEF2000242F8201070474EF60851F7
:1050F000CEF20001096801EB8000006C70470000EF
:105100004EF60852CEF20002126802EB80000164F3
:105110007047000080B543F26850C2F2000000689A
:10512000002818BF0EF0CAFD80BD000080B543F214
:105130006850C2F200000068002818BF0EF0BEFDE3
:1051400080BD000080B543F26850C2F200000068E4
:10515000002818BF0EF0B2FD80BD000080B50EF033
:10516000E1FC45F2F931C0F60001002206F096FE9E
:1051700010F1020F02D20EF0ABFC80BD49F22D11EE
:1051800002A0C0F601018B220DF07CFD7469636BF7
:10519000735F736C657074203C2072746F733A3A5D
:1051A0004B65726E656C3A3A776169745F666F72CF
:1051B0005F7533325F6D6178000000002DE9F04FBC
:1051C00083B002AF029038469A4601928B46FFF7B1
:1051D000D5FE04463846FFF7D1FE06463846FFF7AF
:1051E000CDFE05463846FFF7C9FE81463846FFF733
:1051F000C5FE3846FFF7C2FE5C454FF0FF3B27D1A6
:1052000006F47840B0F5004F22D1300702D04FF0BD
:10521000000B1DE0A5B1002402AF03E0029951FA92
:1052200080F002903846FFF7A3FE0028F6D13846FA
:10523000FFF7A4FE3846FFF7A1FE0134AC42F1D1DE
:105240000C984FF0000B002818BFB9F1000F03D1E4
:10525000584603B0BDE8F08F4FF0000802AD4FF0A4
:10526000000B06E010F0C00F09D10299C0B208444B
:1052700002902846FFF77CFE0028F3D102E0284682
:10528000FFF776FE2846FFF779FE06462846FFF729
:1052900075FE04462846FFF703FF07462846FFF73A
:1052A0006DFEB8F1000F06D16FF000418F4228BFAC
:1052B0000F4601990F60012E08BF012C07D01C2E4C
:1052C00008BF012C12D002990844029021E0042862
:1052D000F5D15446012004F8010B00262846FFF7BB
:1052E00047FEA0550136042EF8D10EE01028EAD171
:1052F0005446022004F8010B002600BF2846FFF7A1
:1053000037FEA0550136102EF8D10AF1110A0BF123
:10531000010B0C9883459BD208F10108C845A8D31E
:1053200096E70000008A4FF6FF71401A18BF01206F
:10533000704700004EF6145200F00F01CEF200024A
:10534000114400F16042B0F1FF3F4FF0F000C8BFE0
:1053500002F5644108707047B0B50C46454211F043
:1053600005FF056040F2F810C2F20000002140F88D
:105370002410B0BD810707D441074FBF01210107A9
:10538000092202EAE17100E0022110F00C0F00F0A6
:10539000040018BF01F5007141EA002070470000C9
:1053A00010B540F26450C2F200000AF09DFB07F015
:1053B000BDFA40F2F8100324C2F2000050F82410A5
:1053C00019B10134102CF9D11024102C06D311F08E
:1053D000CDFE182101604FF0FF3403E04FF0FF31A4
:1053E00040F8241040F26450C2F200000AF07CFB46
:1053F00007F0BEFA204610BD40F25420C2F2000071
:10540000807A002818BF0120704700002DE9F0477E
:1054100082B001AD81460190284698461646FFF7B6
:1054200033FE28464FF48071FFF72EFE28460121F7
:105430004FF0010AFFF728FE28460021FFF724FE5F
:1054400028460021FFF720FE28460021FFF71CFE1A
:10545000307898B115A501AC30462946FBF711F913
:105460000746C2B220463146FFF7FEFDF05D2E280A
:1054700008BF0137F05D3E440028EDD101AC204665
:105480000021FFF7EBFDB8F1020F08BF4FF01C0A37
:1054900020465146FFF7F8FD20460121FFF7F4FDB5
:1054A0000198A0EB090002B0BDE8F0872E000000D3
:1054B0002DE9F04F85B0002A00F0A8800F4609784A
:1054C000924600229846814600F0DEF8002800F05F
:1054D0009D8040F22850C2F200000AF005FB07F060
:1054E00025FA40F2905B6FF000404FF0FF3500214D
:1054F000C2F2000B4FF0FF325BF82130E3B1D3E989
:105500000464961B70EB0406A4BFD3E904200D4687
:1055100001310329F0D1B5F1FF3F11DD5BF82540E2
:10552000CCB16068002818BF0AF0BCFE20680028D3
:1055300018BF0AF0B7FE1CE00D46B5F1FF3FEDDCE9
:1055400040F22850C2F200000AF0CEFA07F010FA3A
:1055500005B0BDE8F08F47F64F41C0F601012020AD
:105560000AF022FF00280CBF002009F0E3FE4BF8F0
:1055700025005BF82540002C40D047F64F4108EB52
:105580000810C0F601010AF0DFFE5BF82510B8F143
:10559000000FCDF8048008600FD001984FF000088C
:1055A00000EB0016206807EB080140441122FAF7CF
:1055B000E2FF08F111084645F4D1019820764846EB
:1055C000FBF717F847F64F410130C0F601010AF02A
:1055D000BBFE49466060FBF72EF802A807F034FADC
:1055E000DDE902074FF47A7203463946EAFB0231DD
:1055F0005BF82520C2E90407C2E9023140F22850D5
:10560000C2F200000AF070FA07F0B2F905B0BDE886
:10561000F08F00002DE9F04381B004460068904609
:10562000826A0E46204619469047474606E000BF6C
:10563000284600F049FD8146002D0FDD6FB120683E
:105640003146436920463A46984705460128EFDB34
:105650007F1B2E44002DF1DC00E0C146484601B01E
:10566000BDE8F083B0B588B00D46014603A80AF046
:1056700063FA03AB0FCB9DF81C40CDE900450EF05B
:105680000DF908B0B0BD00002DE9F04F87B00390D0
:1056900040F22850C2F2000014460D460AF024FAE7
:1056A00007F044F94FF2424740F290580294A4F1B7
:1056B0001100CFF6FF770024C2F200084FF0000B74
:1056C0000090019507E000BF48F82B400BF1010B5B
:1056D000BBF1030F44D058F82B000028F6D004A8E3
:1056E00007F0B2F958F82B60DDE9049AD6E9020117
:1056F000B0EB090071EB0A000ADA7068002818BFE5
:105700000AF0D0FD002EDFD030460AF0CBFDDBE7FB
:105710001DB130680078A842D8D170680399FAF7B3
:105720006FFF0028D2D10298A8B1307E002790B137
:10573000009C6FF0100500BF30681134284400F160
:10574000110120461122FAF716FF307E01378742F9
:1057500005F11105F0D3019D0024C6E9049AB5E7CF
:1057600040F22850C2F200000AF0BEF907F000F93A
:10577000384607B0BDE8F08F2DE9F04FB1B099463B
:1057800092460E46804619B13046FAF732FF00E0E5
:1057900000204FF24144CFF6FF74FF2804F1040BC0
:1057A00000F3EB80002800F0E88047F64F413B9D76
:1057B000C0F60101AA200AF0C7FD07463046294677
:1057C0003A46FFF761FF01281CDB484538BF814698
:1057D000B9F1000FCB460ED0AAF11104A7F11106C2
:1057E0005D4600BF11341136204631461122FAF7CA
:1057F000C2FE013DF6D1002F00F0BF8038460AF00E
:105800004DFDBAE017B138460AF048FD0DA80AF080
:10581000C1F8414601F0D6FB8346002840F0AA803B
:105820003A9F0DA842F2107101F09CFB47B106258A
:105830000DA841F6583109223B46009501F046FB80
:105840004FF4007011F00EFD90B1054600203B9F13
:10585000CDF80CA08DF833000A218DF8310001201D
:105860006FF43C6B0DF1180A8DF8321004900FE0C4
:10587000A3467FE0059AFBB230462146FFF718FEAB
:10588000BB463B9F0624504601F0D0FA062C68D058
:10589000504601F0C1FA3A9C40460DF133010DF13A
:1058A00032020DF13103CDF800A0019400F06AF846
:1058B0000028E7D127B150460AF03CF9B84231D16F
:1058C00050460AF037F903462846012132462C4655
:1058D000FFF79CFD03460DA851462A4603F04AFCFB
:1058E000B0F1FF3F1EDD9DF831109DF8320001310F
:1058F00000288DF831101CBF01388DF832000DA83A
:1059000000212A464FF4007303F0C6FC4FF24741D2
:10591000CFF6FF7188420ED1049818B100200524FB
:105920000490B0E79DF83300052401308DF8330072
:1059300001200490A7E7002810D4039C28460121E9
:1059400005AA2346CDF80090FFF738FC074601284A
:1059500090DA002F95D53B9F052494E706248346D3
:1059600091E7284611F056FC0DA801F08DFB0028A8
:1059700018BF83460DA801F03BFC584631B0BDE886
:10598000F08F000070B50C46117800294FF24241AB
:10599000CFF6FF7127D022780A2A04D31A7812B3DF
:1059A0000021217019702178049E042909D8026809
:1059B000059BD56A3246A847B0F1FF3F0EDC0520B3
:1059C0002070207840F2A01100EB0010C2F200011C
:1059D0000844A0F15501304601F0F0F93046352178
:1059E00001F0FCF90021084670BD000070B584B0DC
:1059F00000F1140416460D46036A16CC00680393A2
:105A00008DE8160000F0DEF900F06CFB40F29C50CF
:105A1000C2F200000AF068F806F0AAFF68460AF031
:105A2000C9F920B16846294632460AF0BFF904B0E8
:105A300070BD00002DE9F04F95B0054640F29C5036
:105A4000C2F200000AF050F806F070FF40F2505128
:105A50000020C2F2000102E00130052808D051F810
:105A60002040002CF8D02268AA42F5D114B90AE0EF
:105A7000002444B194F85B00012804D194F8570045
:105A800060B1013810E040F29C50C2F200000AF010
:105A90002BF806F06DFF15B0BDE8F08F94F85600B6
:105AA000013084F85600012040F23C21C2F200018E
:105AB0000A8884F85700501C83B208808342A4F8F7
:105AC00054201CBF012008804FF235494FF400706C
:105AD000CFF6FF7911F0C6FB002800F0AE808046BB
